{
  "address": "0x9fE46736679d2D9a65F0992F2272dE9f3c7fa6e0",
  "abi": [
    {
      "inputs": [],
      "stateMutability": "nonpayable",
      "type": "constructor"
    },
    {
      "anonymous": false,
      "inputs": [
        {
          "indexed": true,
          "internalType": "address",
          "name": "owner",
          "type": "address"
        },
        {
          "indexed": true,
          "internalType": "address",
          "name": "approved",
          "type": "address"
        },
        {
          "indexed": true,
          "internalType": "uint256",
          "name": "tokenId",
          "type": "uint256"
        }
      ],
      "name": "Approval",
      "type": "event"
    },
    {
      "anonymous": false,
      "inputs": [
        {
          "indexed": true,
          "internalType": "address",
          "name": "owner",
          "type": "address"
        },
        {
          "indexed": true,
          "internalType": "address",
          "name": "operator",
          "type": "address"
        },
        {
          "indexed": false,
          "internalType": "bool",
          "name": "approved",
          "type": "bool"
        }
      ],
      "name": "ApprovalForAll",
      "type": "event"
    },
    {
      "anonymous": false,
      "inputs": [
        {
          "indexed": true,
          "internalType": "address",
          "name": "previousOwner",
          "type": "address"
        },
        {
          "indexed": true,
          "internalType": "address",
          "name": "newOwner",
          "type": "address"
        }
      ],
      "name": "OwnershipTransferred",
      "type": "event"
    },
    {
      "anonymous": false,
      "inputs": [
        {
          "indexed": true,
          "internalType": "address",
          "name": "from",
          "type": "address"
        },
        {
          "indexed": true,
          "internalType": "address",
          "name": "to",
          "type": "address"
        },
        {
          "indexed": true,
          "internalType": "uint256",
          "name": "tokenId",
          "type": "uint256"
        }
      ],
      "name": "Transfer",
      "type": "event"
    },
    {
      "inputs": [
        {
          "internalType": "address",
          "name": "to",
          "type": "address"
        },
        {
          "internalType": "uint256",
          "name": "tokenId",
          "type": "uint256"
        }
      ],
      "name": "approve",
      "outputs": [],
      "stateMutability": "nonpayable",
      "type": "function"
    },
    {
      "inputs": [
        {
          "internalType": "address",
          "name": "owner",
          "type": "address"
        }
      ],
      "name": "balanceOf",
      "outputs": [
        {
          "internalType": "uint256",
          "name": "",
          "type": "uint256"
        }
      ],
      "stateMutability": "view",
      "type": "function"
    },
    {
      "inputs": [
        {
          "internalType": "address payable",
          "name": "to",
          "type": "address"
        },
        {
          "internalType": "uint256",
          "name": "tokenId",
          "type": "uint256"
        }
      ],
      "name": "claimTokens",
      "outputs": [
        {
          "internalType": "uint256",
          "name": "",
          "type": "uint256"
        }
      ],
      "stateMutability": "nonpayable",
      "type": "function"
    },
    {
      "inputs": [
        {
          "internalType": "uint256",
          "name": "tokenId",
          "type": "uint256"
        }
      ],
      "name": "getApproved",
      "outputs": [
        {
          "internalType": "address",
          "name": "",
          "type": "address"
        }
      ],
      "stateMutability": "view",
      "type": "function"
    },
    {
      "inputs": [
        {
          "internalType": "address",
          "name": "tokenAddress",
          "type": "address"
        }
      ],
      "name": "initToken",
      "outputs": [
        {
          "internalType": "bool",
          "name": "",
          "type": "bool"
        }
      ],
      "stateMutability": "nonpayable",
      "type": "function"
    },
    {
      "inputs": [
        {
          "internalType": "address",
          "name": "owner",
          "type": "address"
        },
        {
          "internalType": "address",
          "name": "operator",
          "type": "address"
        }
      ],
      "name": "isApprovedForAll",
      "outputs": [
        {
          "internalType": "bool",
          "name": "",
          "type": "bool"
        }
      ],
      "stateMutability": "view",
      "type": "function"
    },
    {
      "inputs": [],
      "name": "mintItem",
      "outputs": [
        {
          "internalType": "uint256",
          "name": "",
          "type": "uint256"
        }
      ],
      "stateMutability": "payable",
      "type": "function"
    },
    {
      "inputs": [],
      "name": "name",
      "outputs": [
        {
          "internalType": "string",
          "name": "",
          "type": "string"
        }
      ],
      "stateMutability": "view",
      "type": "function"
    },
    {
      "inputs": [],
      "name": "owner",
      "outputs": [
        {
          "internalType": "address",
          "name": "",
          "type": "address"
        }
      ],
      "stateMutability": "view",
      "type": "function"
    },
    {
      "inputs": [
        {
          "internalType": "uint256",
          "name": "tokenId",
          "type": "uint256"
        }
      ],
      "name": "ownerOf",
      "outputs": [
        {
          "internalType": "address",
          "name": "",
          "type": "address"
        }
      ],
      "stateMutability": "view",
      "type": "function"
    },
    {
      "inputs": [
        {
          "internalType": "uint256",
          "name": "",
          "type": "uint256"
        }
      ],
      "name": "properties",
      "outputs": [
        {
          "internalType": "bytes32",
          "name": "",
          "type": "bytes32"
        }
      ],
      "stateMutability": "view",
      "type": "function"
    },
    {
      "inputs": [
        {
          "internalType": "uint256",
          "name": "id",
          "type": "uint256"
        }
      ],
      "name": "renderTokenById",
      "outputs": [
        {
          "internalType": "string",
          "name": "",
          "type": "string"
        }
      ],
      "stateMutability": "view",
      "type": "function"
    },
    {
      "inputs": [],
      "name": "renounceOwnership",
      "outputs": [],
      "stateMutability": "nonpayable",
      "type": "function"
    },
    {
      "inputs": [
        {
          "internalType": "address",
          "name": "from",
          "type": "address"
        },
        {
          "internalType": "address",
          "name": "to",
          "type": "address"
        },
        {
          "internalType": "uint256",
          "name": "tokenId",
          "type": "uint256"
        }
      ],
      "name": "safeTransferFrom",
      "outputs": [],
      "stateMutability": "nonpayable",
      "type": "function"
    },
    {
      "inputs": [
        {
          "internalType": "address",
          "name": "from",
          "type": "address"
        },
        {
          "internalType": "address",
          "name": "to",
          "type": "address"
        },
        {
          "internalType": "uint256",
          "name": "tokenId",
          "type": "uint256"
        },
        {
          "internalType": "bytes",
          "name": "_data",
          "type": "bytes"
        }
      ],
      "name": "safeTransferFrom",
      "outputs": [],
      "stateMutability": "nonpayable",
      "type": "function"
    },
    {
      "inputs": [
        {
          "internalType": "address",
          "name": "operator",
          "type": "address"
        },
        {
          "internalType": "bool",
          "name": "approved",
          "type": "bool"
        }
      ],
      "name": "setApprovalForAll",
      "outputs": [],
      "stateMutability": "nonpayable",
      "type": "function"
    },
    {
      "inputs": [
        {
          "internalType": "bytes4",
          "name": "interfaceId",
          "type": "bytes4"
        }
      ],
      "name": "supportsInterface",
      "outputs": [
        {
          "internalType": "bool",
          "name": "",
          "type": "bool"
        }
      ],
      "stateMutability": "view",
      "type": "function"
    },
    {
      "inputs": [],
      "name": "symbol",
      "outputs": [
        {
          "internalType": "string",
          "name": "",
          "type": "string"
        }
      ],
      "stateMutability": "view",
      "type": "function"
    },
    {
      "inputs": [
        {
          "internalType": "uint256",
          "name": "index",
          "type": "uint256"
        }
      ],
      "name": "tokenByIndex",
      "outputs": [
        {
          "internalType": "uint256",
          "name": "",
          "type": "uint256"
        }
      ],
      "stateMutability": "view",
      "type": "function"
    },
    {
      "inputs": [
        {
          "internalType": "address",
          "name": "owner",
          "type": "address"
        },
        {
          "internalType": "uint256",
          "name": "index",
          "type": "uint256"
        }
      ],
      "name": "tokenOfOwnerByIndex",
      "outputs": [
        {
          "internalType": "uint256",
          "name": "",
          "type": "uint256"
        }
      ],
      "stateMutability": "view",
      "type": "function"
    },
    {
      "inputs": [
        {
          "internalType": "uint256",
          "name": "id",
          "type": "uint256"
        }
      ],
      "name": "tokenURI",
      "outputs": [
        {
          "internalType": "string",
          "name": "",
          "type": "string"
        }
      ],
      "stateMutability": "view",
      "type": "function"
    },
    {
      "inputs": [],
      "name": "totalSupply",
      "outputs": [
        {
          "internalType": "uint256",
          "name": "",
          "type": "uint256"
        }
      ],
      "stateMutability": "view",
      "type": "function"
    },
    {
      "inputs": [
        {
          "internalType": "address",
          "name": "from",
          "type": "address"
        },
        {
          "internalType": "address",
          "name": "to",
          "type": "address"
        },
        {
          "internalType": "uint256",
          "name": "tokenId",
          "type": "uint256"
        }
      ],
      "name": "transferFrom",
      "outputs": [],
      "stateMutability": "nonpayable",
      "type": "function"
    },
    {
      "inputs": [
        {
          "internalType": "address",
          "name": "newOwner",
          "type": "address"
        }
      ],
      "name": "transferOwnership",
      "outputs": [],
      "stateMutability": "nonpayable",
      "type": "function"
    },
    {
      "inputs": [
        {
          "internalType": "uint256",
          "name": "id",
          "type": "uint256"
        }
      ],
      "name": "worldEnergy",
      "outputs": [
        {
          "internalType": "uint256",
          "name": "",
          "type": "uint256"
        }
      ],
      "stateMutability": "view",
      "type": "function"
    }
  ],
  "transactionHash": "0xc9ee5fe4a01d8e4b9a1f0d7dd5d314fe4081ed606de4e7e1fb56efd7bb04ed7d",
  "args": [],
  "solcInputHash": "330bd776cec4a1d48132bf527a92d6c1",
  "bytecode": "0x608060405260405180608001604052806040518060400160405280600681526020017f46726f7a656e000000000000000000000000000000000000000000000000000081525081526020016040518060400160405280600681526020017f446573657274000000000000000000000000000000000000000000000000000081525081526020016040518060400160405280600581526020017f4f6365616e00000000000000000000000000000000000000000000000000000081525081526020016040518060400160405280600681526020017f4a756e676c650000000000000000000000000000000000000000000000000000815250815250600c9060046200010b92919062000bf5565b506040518061010001604052806040518060400160405280600481526020017f49726f6e0000000000000000000000000000000000000000000000000000000081525081526020016040518060400160405280600681526020017f436f70706572000000000000000000000000000000000000000000000000000081525081526020016040518060400160405280600481526020017f476f6c640000000000000000000000000000000000000000000000000000000081525081526020016040518060400160405280600881526020017f4f7267616e69637300000000000000000000000000000000000000000000000081525081526020016040518060400160405280600881526020017f53696c696361746500000000000000000000000000000000000000000000000081525081526020016040518060400160405280600e81526020017f477261766974792053686172647300000000000000000000000000000000000081525081526020016040518060400160405280600b81526020017f556e6f627461696e69756d00000000000000000000000000000000000000000081525081526020016040518060400160405280600781526020017f5572616e69756d00000000000000000000000000000000000000000000000000815250815250600d9060086200030092919062000c5c565b506040518060e001604052806040518060400160405280600581526020017f4d696e657200000000000000000000000000000000000000000000000000000081525081526020016040518060400160405280600b81526020017f5465727261666f726d657200000000000000000000000000000000000000000081525081526020016040518060400160405280600e81526020017f576f726c6420436f6d707574657200000000000000000000000000000000000081525081526020016040518060400160405280601481526020017f436f6e7461696e656420416e74696d617474657200000000000000000000000081525081526020016040518060400160405280600b81526020017f5472616e736d697474657200000000000000000000000000000000000000000081525081526020016040518060400160405280600581526020017f466c65657400000000000000000000000000000000000000000000000000000081525081526020016040518060400160405280600d81526020017f44726f6e6520466163746f727900000000000000000000000000000000000000815250815250600e906007620004b992919062000cc3565b5060405180608001604052806040518060400160405280600681526020017f4f787967656e000000000000000000000000000000000000000000000000000081525081526020016040518060400160405280600881526020017f4e6974726f67656e00000000000000000000000000000000000000000000000081525081526020016040518060400160405280600781526020017f4d657468616e650000000000000000000000000000000000000000000000000081525081526020016040518060400160405280600681526020017f48656c69756d0000000000000000000000000000000000000000000000000000815250815250600f906004620005c192919062000bf5565b506040518060e001604052806040518060400160405280600981526020017f457863657373696f6e000000000000000000000000000000000000000000000081525081526020016040518060400160405280600481526020017f4d6f6f6e0000000000000000000000000000000000000000000000000000000081525081526020016040518060400160405280600781526020017f4f72626974616c0000000000000000000000000000000000000000000000000081525081526020016040518060400160405280600481526020017f476174650000000000000000000000000000000000000000000000000000000081525081526020016040518060400160405280600681526020017f5368726f7564000000000000000000000000000000000000000000000000000081525081526020016040518060400160405280600a81526020017f536f6c6172204661726d0000000000000000000000000000000000000000000081525081526020016040518060400160405280600f81526020017f4661627269636174696f6e20487562000000000000000000000000000000000081525081525060109060076200077a92919062000cc3565b5060405180608001604052806040518060400160405280600581526020017f456c64657200000000000000000000000000000000000000000000000000000081525081526020016040518060400160405280600481526020017f486976650000000000000000000000000000000000000000000000000000000081525081526020016040518060400160405280600981526020017f416e6e6f696e746564000000000000000000000000000000000000000000000081525081526020016040518060400160405280600981526020017f4175676d656e746564000000000000000000000000000000000000000000000081525081525060119060046200088292919062000bf5565b506040518060e001604052806040518060400160405280600a81526020017f6f66207468652044414f0000000000000000000000000000000000000000000081525081526020016040518060400160405280600c81526020017f6f662074686520517565656e000000000000000000000000000000000000000081525081526020016040518060400160405280600c81526020017f6f6620746865204b6e6f776e000000000000000000000000000000000000000081525081526020016040518060400160405280601181526020017f6f66206f76657270726f64756374696f6e00000000000000000000000000000081525081526020016040518060400160405280601381526020017f6f6620656e68616e63656420646566656e73650000000000000000000000000081525081526020016040518060400160405280600f81526020017f6f6620746865205375626c696d6564000000000000000000000000000000000081525081526020016040518060400160405280600e81526020017f6f6620656d706f7765726d656e74000000000000000000000000000000000000815250815250601290600762000a3b92919062000cc3565b5034801562000a4957600080fd5b506040518060400160405280600681526020017f576f726c647300000000000000000000000000000000000000000000000000008152506040518060400160405280600681526020017f574f524c44530000000000000000000000000000000000000000000000000000815250816000908051906020019062000ace92919062000d2a565b50806001908051906020019062000ae792919062000d2a565b50505062000b0a62000afe62000b2760201b60201c565b62000b2f60201b60201c565b620151804262000b1b919062000e48565b60148190555062000f43565b600033905090565b6000600a60009054906101000a900473ffffffffffffffffffffffffffffffffffffffff16905081600a60006101000a81548173ffffffffffffffffffffffffffffffffffffffff021916908373ffffffffffffffffffffffffffffffffffffffff1602179055508173ffffffffffffffffffffffffffffffffffffffff168173ffffffffffffffffffffffffffffffffffffffff167f8be0079c531659141344cd1fd0a4f28419497f9722a3daafe3b4186f6b6457e060405160405180910390a35050565b82805482825590600052602060002090810192821562000c49579160200282015b8281111562000c4857825182908051906020019062000c3792919062000d2a565b509160200191906001019062000c16565b5b50905062000c58919062000dbb565b5090565b82805482825590600052602060002090810192821562000cb0579160200282015b8281111562000caf57825182908051906020019062000c9e92919062000d2a565b509160200191906001019062000c7d565b5b50905062000cbf919062000dbb565b5090565b82805482825590600052602060002090810192821562000d17579160200282015b8281111562000d1657825182908051906020019062000d0592919062000d2a565b509160200191906001019062000ce4565b5b50905062000d26919062000dbb565b5090565b82805462000d389062000eaf565b90600052602060002090601f01602090048101928262000d5c576000855562000da8565b82601f1062000d7757805160ff191683800117855562000da8565b8280016001018555821562000da8579182015b8281111562000da757825182559160200191906001019062000d8a565b5b50905062000db7919062000de3565b5090565b5b8082111562000ddf576000818162000dd5919062000e02565b5060010162000dbc565b5090565b5b8082111562000dfe57600081600090555060010162000de4565b5090565b50805462000e109062000eaf565b6000825580601f1062000e24575062000e45565b601f01602090049060005260206000209081019062000e44919062000de3565b5b50565b600062000e558262000ea5565b915062000e628362000ea5565b9250827fffffffffffffffffffffffffffffffffffffffffffffffffffffffffffffffff0382111562000e9a5762000e9962000ee5565b5b828201905092915050565b6000819050919050565b6000600282049050600182168062000ec857607f821691505b6020821081141562000edf5762000ede62000f14565b5b50919050565b7f4e487b7100000000000000000000000000000000000000000000000000000000600052601160045260246000fd5b7f4e487b7100000000000000000000000000000000000000000000000000000000600052602260045260246000fd5b615fb08062000f536000396000f3fe6080604052600436106101665760003560e01c80638da5cb5b116100d1578063df4d17dc1161008a578063eb93406b11610064578063eb93406b1461059a578063f2fde38b146105b8578063f7b10808146105e1578063fe417fa51461061e57610166565b8063df4d17dc146104e3578063e69d203914610520578063e985e9c51461055d57610166565b80638da5cb5b146103c157806395d89b41146103ec578063a22cb46514610417578063a2d6c6da14610440578063b88d4fde1461047d578063c87b56dd146104a657610166565b80632f745c59116101235780632f745c591461028d57806342842e0e146102ca5780634f6ccce7146102f35780636352211e1461033057806370a082311461036d578063715018a6146103aa57610166565b806301ffc9a71461016b57806306fdde03146101a8578063081812fc146101d3578063095ea7b31461021057806318160ddd1461023957806323b872dd14610264575b600080fd5b34801561017757600080fd5b50610192600480360381019061018d919061420e565b61065b565b60405161019f9190614cb0565b60405180910390f35b3480156101b457600080fd5b506101bd6106d5565b6040516101ca9190614ce6565b60405180910390f35b3480156101df57600080fd5b506101fa60048036038101906101f59190614260565b610767565b6040516102079190614c20565b60405180910390f35b34801561021c57600080fd5b50610237600480360381019061023291906141a9565b6107ec565b005b34801561024557600080fd5b5061024e610904565b60405161025b9190614fe8565b60405180910390f35b34801561027057600080fd5b5061028b600480360381019061028691906140a3565b610911565b005b34801561029957600080fd5b506102b460048036038101906102af91906141a9565b610971565b6040516102c19190614fe8565b60405180910390f35b3480156102d657600080fd5b506102f160048036038101906102ec91906140a3565b610a16565b005b3480156102ff57600080fd5b5061031a60048036038101906103159190614260565b610a36565b6040516103279190614fe8565b60405180910390f35b34801561033c57600080fd5b5061035760048036038101906103529190614260565b610acd565b6040516103649190614c20565b60405180910390f35b34801561037957600080fd5b50610394600480360381019061038f9190614002565b610b7f565b6040516103a19190614fe8565b60405180910390f35b3480156103b657600080fd5b506103bf610c37565b005b3480156103cd57600080fd5b506103d6610cbf565b6040516103e39190614c20565b60405180910390f35b3480156103f857600080fd5b50610401610ce9565b60405161040e9190614ce6565b60405180910390f35b34801561042357600080fd5b5061043e6004803603810190610439919061416d565b610d7b565b005b34801561044c57600080fd5b5061046760048036038101906104629190614260565b610d91565b6040516104749190614ce6565b60405180910390f35b34801561048957600080fd5b506104a4600480360381019061049f91906140f2565b610dc8565b005b3480156104b257600080fd5b506104cd60048036038101906104c89190614260565b610e2a565b6040516104da9190614ce6565b60405180910390f35b3480156104ef57600080fd5b5061050a60048036038101906105059190614002565b610f28565b6040516105179190614cb0565b60405180910390f35b34801561052c57600080fd5b5061054760048036038101906105429190614260565b61109e565b6040516105549190614fe8565b60405180910390f35b34801561056957600080fd5b50610584600480360381019061057f9190614067565b6110f1565b6040516105919190614cb0565b60405180910390f35b6105a2611185565b6040516105af9190614fe8565b60405180910390f35b3480156105c457600080fd5b506105df60048036038101906105da9190614002565b611245565b005b3480156105ed57600080fd5b5061060860048036038101906106039190614260565b61133d565b6040516106159190614ccb565b60405180910390f35b34801561062a57600080fd5b506106456004803603810190610640919061402b565b611355565b6040516106529190614fe8565b60405180910390f35b60007f780e9d63000000000000000000000000000000000000000000000000000000007bffffffffffffffffffffffffffffffffffffffffffffffffffffffff1916827bffffffffffffffffffffffffffffffffffffffffffffffffffffffff191614806106ce57506106cd82611539565b5b9050919050565b6060600080546106e490615312565b80601f016020809104026020016040519081016040528092919081815260200182805461071090615312565b801561075d5780601f106107325761010080835404028352916020019161075d565b820191906000526020600020905b81548152906001019060200180831161074057829003601f168201915b5050505050905090565b60006107728261161b565b6107b1576040517f08c379a00000000000000000000000000000000000000000000000000000000081526004016107a890614f08565b60405180910390fd5b6004600083815260200190815260200160002060009054906101000a900473ffffffffffffffffffffffffffffffffffffffff169050919050565b60006107f782610acd565b90508073ffffffffffffffffffffffffffffffffffffffff168373ffffffffffffffffffffffffffffffffffffffff161415610868576040517f08c379a000000000000000000000000000000000000000000000000000000000815260040161085f90614f68565b60405180910390fd5b8073ffffffffffffffffffffffffffffffffffffffff16610887611687565b73ffffffffffffffffffffffffffffffffffffffff1614806108b657506108b5816108b0611687565b6110f1565b5b6108f5576040517f08c379a00000000000000000000000000000000000000000000000000000000081526004016108ec90614e88565b60405180910390fd5b6108ff838361168f565b505050565b6000600880549050905090565b61092261091c611687565b82611748565b610961576040517f08c379a000000000000000000000000000000000000000000000000000000000815260040161095890614f88565b60405180910390fd5b61096c838383611826565b505050565b600061097c83610b7f565b82106109bd576040517f08c379a00000000000000000000000000000000000000000000000000000000081526004016109b490614d28565b60405180910390fd5b600660008473ffffffffffffffffffffffffffffffffffffffff1673ffffffffffffffffffffffffffffffffffffffff168152602001908152602001600020600083815260200190815260200160002054905092915050565b610a3183838360405180602001604052806000815250610dc8565b505050565b6000610a40610904565b8210610a81576040517f08c379a0000000000000000000000000000000000000000000000000000000008152600401610a7890614fa8565b60405180910390fd5b60088281548110610abb577f4e487b7100000000000000000000000000000000000000000000000000000000600052603260045260246000fd5b90600052602060002001549050919050565b6000806002600084815260200190815260200160002060009054906101000a900473ffffffffffffffffffffffffffffffffffffffff169050600073ffffffffffffffffffffffffffffffffffffffff168173ffffffffffffffffffffffffffffffffffffffff161415610b76576040517f08c379a0000000000000000000000000000000000000000000000000000000008152600401610b6d90614ec8565b60405180910390fd5b80915050919050565b60008073ffffffffffffffffffffffffffffffffffffffff168273ffffffffffffffffffffffffffffffffffffffff161415610bf0576040517f08c379a0000000000000000000000000000000000000000000000000000000008152600401610be790614ea8565b60405180910390fd5b600360008373ffffffffffffffffffffffffffffffffffffffff1673ffffffffffffffffffffffffffffffffffffffff168152602001908152602001600020549050919050565b610c3f611687565b73ffffffffffffffffffffffffffffffffffffffff16610c5d610cbf565b73ffffffffffffffffffffffffffffffffffffffff1614610cb3576040517f08c379a0000000000000000000000000000000000000000000000000000000008152600401610caa90614f28565b60405180910390fd5b610cbd6000611a82565b565b6000600a60009054906101000a900473ffffffffffffffffffffffffffffffffffffffff16905090565b606060018054610cf890615312565b80601f0160208091040260200160405190810160405280929190818152602001828054610d2490615312565b8015610d715780601f10610d4657610100808354040283529160200191610d71565b820191906000526020600020905b815481529060010190602001808311610d5457829003601f168201915b5050505050905090565b610d8d610d86611687565b8383611b48565b5050565b60606000610d9e83611cb5565b604051602001610dae919061493f565b604051602081830303815290604052905080915050919050565b610dd9610dd3611687565b83611748565b610e18576040517f08c379a0000000000000000000000000000000000000000000000000000000008152600401610e0f90614f88565b60405180910390fd5b610e24848484846127f3565b50505050565b6060610e358261161b565b610e74576040517f08c379a0000000000000000000000000000000000000000000000000000000008152600401610e6b90614e68565b60405180910390fd5b60006040518060400160405280601d81526020017f3e3e3e73706f6f6c696e6753656e7469656e63652e2e2e73756363657300000081525090506000610eb984611cb5565b90506000610ef9610ec98661284f565b84610ed385612a24565b604051602001610ee593929190614ba8565b604051602081830303815290604052612a24565b905080604051602001610f0c9190614b86565b6040516020818303038152906040529150819350505050919050565b6000601760009054906101000a900460ff1615610f7a576040517f08c379a0000000000000000000000000000000000000000000000000000000008152600401610f7190614de8565b60405180910390fd5b81601560006101000a81548173ffffffffffffffffffffffffffffffffffffffff021916908373ffffffffffffffffffffffffffffffffffffffff1602179055506001601760006101000a81548160ff021916908315150217905550601560009054906101000a900473ffffffffffffffffffffffffffffffffffffffff1673ffffffffffffffffffffffffffffffffffffffff166370a08231306040518263ffffffff1660e01b81526004016110319190614c20565b60206040518083038186803b15801561104957600080fd5b505afa15801561105d573d6000803e3d6000fd5b505050506040513d601f19601f820116820180604052508101906110819190614289565b601681905550601760009054906101000a900460ff169050919050565b600060646110ab83612bc3565b6110b5919061513e565b603c6018600085815260200190815260200160002054426110d691906151c9565b6110e0919061513e565b6110ea919061516f565b9050919050565b6000600560008473ffffffffffffffffffffffffffffffffffffffff1673ffffffffffffffffffffffffffffffffffffffff16815260200190815260200160002060008373ffffffffffffffffffffffffffffffffffffffff1673ffffffffffffffffffffffffffffffffffffffff16815260200190815260200160002060009054906101000a900460ff16905092915050565b600066038d7ea4c6800034101561119b57600080fd5b60145442106111df576040517f08c379a00000000000000000000000000000000000000000000000000000000081526004016111d690614da8565b60405180910390fd5b60006111e9612c0f565b905060006111f76013612c4e565b905081600b60008381526020019081526020016000208190555061121b3382612c5c565b42601860008381526020019081526020016000208190555061123d6013612e2a565b809250505090565b61124d611687565b73ffffffffffffffffffffffffffffffffffffffff1661126b610cbf565b73ffffffffffffffffffffffffffffffffffffffff16146112c1576040517f08c379a00000000000000000000000000000000000000000000000000000000081526004016112b890614f28565b60405180910390fd5b600073ffffffffffffffffffffffffffffffffffffffff168173ffffffffffffffffffffffffffffffffffffffff161415611331576040517f08c379a000000000000000000000000000000000000000000000000000000000815260040161132890614d68565b60405180910390fd5b61133a81611a82565b50565b600b6020528060005260406000206000915090505481565b6000601760009054906101000a900460ff166113a6576040517f08c379a000000000000000000000000000000000000000000000000000000000815260040161139d90614fc8565b60405180910390fd5b6113af82610acd565b73ffffffffffffffffffffffffffffffffffffffff163373ffffffffffffffffffffffffffffffffffffffff161461141c576040517f08c379a000000000000000000000000000000000000000000000000000000000815260040161141390614dc8565b60405180910390fd5b60006114278361109e565b9050601560009054906101000a900473ffffffffffffffffffffffffffffffffffffffff1673ffffffffffffffffffffffffffffffffffffffff1663a9059cbb85836040518363ffffffff1660e01b8152600401611486929190614c3b565b602060405180830381600087803b1580156114a057600080fd5b505af11580156114b4573d6000803e3d6000fd5b505050506040513d601f19601f820116820180604052508101906114d891906141e5565b611517576040517f08c379a000000000000000000000000000000000000000000000000000000000815260040161150e90614d08565b60405180910390fd5b4260186000858152602001908152602001600020819055508091505092915050565b60007f80ac58cd000000000000000000000000000000000000000000000000000000007bffffffffffffffffffffffffffffffffffffffffffffffffffffffff1916827bffffffffffffffffffffffffffffffffffffffffffffffffffffffff1916148061160457507f5b5e139f000000000000000000000000000000000000000000000000000000007bffffffffffffffffffffffffffffffffffffffffffffffffffffffff1916827bffffffffffffffffffffffffffffffffffffffffffffffffffffffff1916145b80611614575061161382612e40565b5b9050919050565b60008073ffffffffffffffffffffffffffffffffffffffff166002600084815260200190815260200160002060009054906101000a900473ffffffffffffffffffffffffffffffffffffffff1673ffffffffffffffffffffffffffffffffffffffff1614159050919050565b600033905090565b816004600083815260200190815260200160002060006101000a81548173ffffffffffffffffffffffffffffffffffffffff021916908373ffffffffffffffffffffffffffffffffffffffff160217905550808273ffffffffffffffffffffffffffffffffffffffff1661170283610acd565b73ffffffffffffffffffffffffffffffffffffffff167f8c5be1e5ebec7d5bd14f71427d1e84f3dd0314c0f7b2291e5b200ac8c7c3b92560405160405180910390a45050565b60006117538261161b565b611792576040517f08c379a000000000000000000000000000000000000000000000000000000000815260040161178990614e48565b60405180910390fd5b600061179d83610acd565b90508073ffffffffffffffffffffffffffffffffffffffff168473ffffffffffffffffffffffffffffffffffffffff16148061180c57508373ffffffffffffffffffffffffffffffffffffffff166117f484610767565b73ffffffffffffffffffffffffffffffffffffffff16145b8061181d575061181c81856110f1565b5b91505092915050565b8273ffffffffffffffffffffffffffffffffffffffff1661184682610acd565b73ffffffffffffffffffffffffffffffffffffffff161461189c576040517f08c379a000000000000000000000000000000000000000000000000000000000815260040161189390614f48565b60405180910390fd5b600073ffffffffffffffffffffffffffffffffffffffff168273ffffffffffffffffffffffffffffffffffffffff16141561190c576040517f08c379a000000000000000000000000000000000000000000000000000000000815260040161190390614e08565b60405180910390fd5b611917838383612eaa565b61192260008261168f565b6001600360008573ffffffffffffffffffffffffffffffffffffffff1673ffffffffffffffffffffffffffffffffffffffff168152602001908152602001600020600082825461197291906151c9565b925050819055506001600360008473ffffffffffffffffffffffffffffffffffffffff1673ffffffffffffffffffffffffffffffffffffffff16815260200190815260200160002060008282546119c991906150b1565b92505081905550816002600083815260200190815260200160002060006101000a81548173ffffffffffffffffffffffffffffffffffffffff021916908373ffffffffffffffffffffffffffffffffffffffff160217905550808273ffffffffffffffffffffffffffffffffffffffff168473ffffffffffffffffffffffffffffffffffffffff167fddf252ad1be2c89b69c2b068fc378daa952ba7f163c4a11628f55a4df523b3ef60405160405180910390a4505050565b6000600a60009054906101000a900473ffffffffffffffffffffffffffffffffffffffff16905081600a60006101000a81548173ffffffffffffffffffffffffffffffffffffffff021916908373ffffffffffffffffffffffffffffffffffffffff1602179055508173ffffffffffffffffffffffffffffffffffffffff168173ffffffffffffffffffffffffffffffffffffffff167f8be0079c531659141344cd1fd0a4f28419497f9722a3daafe3b4186f6b6457e060405160405180910390a35050565b8173ffffffffffffffffffffffffffffffffffffffff168373ffffffffffffffffffffffffffffffffffffffff161415611bb7576040517f08c379a0000000000000000000000000000000000000000000000000000000008152600401611bae90614e28565b60405180910390fd5b80600560008573ffffffffffffffffffffffffffffffffffffffff1673ffffffffffffffffffffffffffffffffffffffff16815260200190815260200160002060008473ffffffffffffffffffffffffffffffffffffffff1673ffffffffffffffffffffffffffffffffffffffff16815260200190815260200160002060006101000a81548160ff0219169083151502179055508173ffffffffffffffffffffffffffffffffffffffff168373ffffffffffffffffffffffffffffffffffffffff167f17307eab39ab6107e8899845ad3d59bd9653f200f220920489ca2b5937696c3183604051611ca89190614cb0565b60405180910390a3505050565b6060611cc08261161b565b611cff576040517f08c379a0000000000000000000000000000000000000000000000000000000008152600401611cf690614e68565b60405180910390fd5b611d07613ea3565b6040518061014001604052806101018152602001615e52610101913981600060128110611d5d577f4e487b7100000000000000000000000000000000000000000000000000000000600052603260045260246000fd5b6020020181905250611d6e83612fbe565b81600160128110611da8577f4e487b7100000000000000000000000000000000000000000000000000000000600052603260045260246000fd5b6020020181905250604051806060016040528060288152602001615f536028913981600260128110611e03577f4e487b7100000000000000000000000000000000000000000000000000000000600052603260045260246000fd5b6020020181905250611e14836130d8565b81600360128110611e4e577f4e487b7100000000000000000000000000000000000000000000000000000000600052603260045260246000fd5b6020020181905250604051806060016040528060288152602001615d1e6028913981600460128110611ea9577f4e487b7100000000000000000000000000000000000000000000000000000000600052603260045260246000fd5b6020020181905250611ec2611ebd846131f2565b61284f565b81600560128110611efc577f4e487b7100000000000000000000000000000000000000000000000000000000600052603260045260246000fd5b6020020181905250604051806060016040528060288152602001615d986028913981600660128110611f57577f4e487b7100000000000000000000000000000000000000000000000000000000600052603260045260246000fd5b6020020181905250611f70611f6b84612bc3565b61284f565b81600760128110611faa577f4e487b7100000000000000000000000000000000000000000000000000000000600052603260045260246000fd5b6020020181905250604051806060016040528060298152602001615dc06029913981600860128110612005577f4e487b7100000000000000000000000000000000000000000000000000000000600052603260045260246000fd5b602002018190525061201683613252565b81600960128110612050577f4e487b7100000000000000000000000000000000000000000000000000000000600052603260045260246000fd5b6020020181905250604051806060016040528060298152602001615d6f6029913981600a601281106120ab577f4e487b7100000000000000000000000000000000000000000000000000000000600052603260045260246000fd5b60200201819052506120bc8361336c565b81600b601281106120f6577f4e487b7100000000000000000000000000000000000000000000000000000000600052603260045260246000fd5b6020020181905250604051806060016040528060298152602001615de96029913981600c60128110612151577f4e487b7100000000000000000000000000000000000000000000000000000000600052603260045260246000fd5b602002018190525061216283613486565b81600d6012811061219c577f4e487b7100000000000000000000000000000000000000000000000000000000600052603260045260246000fd5b6020020181905250604051806060016040528060298152602001615d466029913981600e601281106121f7577f4e487b7100000000000000000000000000000000000000000000000000000000600052603260045260246000fd5b602002018190525061221061220b8461109e565b61284f565b81600f6012811061224a577f4e487b7100000000000000000000000000000000000000000000000000000000600052603260045260246000fd5b6020020181905250604051806060016040528060298152602001615d4660299139816010601281106122a5577f4e487b7100000000000000000000000000000000000000000000000000000000600052603260045260246000fd5b60200201819052506040518060400160405280600d81526020017f3c2f746578743e3c2f7376673e000000000000000000000000000000000000008152508160116012811061231d577f4e487b7100000000000000000000000000000000000000000000000000000000600052603260045260246000fd5b6020020181905250600081600060128110612361577f4e487b7100000000000000000000000000000000000000000000000000000000600052603260045260246000fd5b6020020151826001601281106123a0577f4e487b7100000000000000000000000000000000000000000000000000000000600052603260045260246000fd5b6020020151836002601281106123df577f4e487b7100000000000000000000000000000000000000000000000000000000600052603260045260246000fd5b60200201518460036012811061241e577f4e487b7100000000000000000000000000000000000000000000000000000000600052603260045260246000fd5b60200201518560046012811061245d577f4e487b7100000000000000000000000000000000000000000000000000000000600052603260045260246000fd5b60200201518660056012811061249c577f4e487b7100000000000000000000000000000000000000000000000000000000600052603260045260246000fd5b6020020151876006601281106124db577f4e487b7100000000000000000000000000000000000000000000000000000000600052603260045260246000fd5b60200201518860076012811061251a577f4e487b7100000000000000000000000000000000000000000000000000000000600052603260045260246000fd5b602002015189600860128110612559577f4e487b7100000000000000000000000000000000000000000000000000000000600052603260045260246000fd5b6020020151604051602001612576999897969594939291906149b7565b604051602081830303815290604052905080826009601281106125c2577f4e487b7100000000000000000000000000000000000000000000000000000000600052603260045260246000fd5b602002015183600a60128110612601577f4e487b7100000000000000000000000000000000000000000000000000000000600052603260045260246000fd5b602002015184600b60128110612640577f4e487b7100000000000000000000000000000000000000000000000000000000600052603260045260246000fd5b602002015185600c6012811061267f577f4e487b7100000000000000000000000000000000000000000000000000000000600052603260045260246000fd5b602002015186600d601281106126be577f4e487b7100000000000000000000000000000000000000000000000000000000600052603260045260246000fd5b602002015187600e601281106126fd577f4e487b7100000000000000000000000000000000000000000000000000000000600052603260045260246000fd5b602002015188600f6012811061273c577f4e487b7100000000000000000000000000000000000000000000000000000000600052603260045260246000fd5b60200201518960106012811061277b577f4e487b7100000000000000000000000000000000000000000000000000000000600052603260045260246000fd5b60200201518a6011601281106127ba577f4e487b7100000000000000000000000000000000000000000000000000000000600052603260045260246000fd5b60200201516040516020016127d89a99989796959493929190614a36565b60405160208183030381529060405290508092505050919050565b6127fe848484611826565b61280a848484846135a0565b612849576040517f08c379a000000000000000000000000000000000000000000000000000000000815260040161284090614d48565b60405180910390fd5b50505050565b60606000821415612897576040518060400160405280600181526020017f30000000000000000000000000000000000000000000000000000000000000008152509050612a1f565b600082905060005b600082146128c95780806128b290615375565b915050600a826128c2919061513e565b915061289f565b60008167ffffffffffffffff81111561290b577f4e487b7100000000000000000000000000000000000000000000000000000000600052604160045260246000fd5b6040519080825280601f01601f19166020018201604052801561293d5781602001600182028036833780820191505090505b50905060008290505b60008614612a175760018161295b91906151c9565b90506000600a808861296d919061513e565b612977919061516f565b8761298291906151c9565b603061298e9190615107565b905060008160f81b9050808484815181106129d2577f4e487b7100000000000000000000000000000000000000000000000000000000600052603260045260246000fd5b60200101907effffffffffffffffffffffffffffffffffffffffffffffffffffffffffffff1916908160001a905350600a88612a0e919061513e565b97505050612946565b819450505050505b919050565b6060600082511415612a4757604051806020016040528060008152509050612bbe565b6000604051806060016040528060408152602001615e126040913990506000600360028551612a7691906150b1565b612a80919061513e565b6004612a8c919061516f565b90506000602082612a9d91906150b1565b67ffffffffffffffff811115612adc577f4e487b7100000000000000000000000000000000000000000000000000000000600052604160045260246000fd5b6040519080825280601f01601f191660200182016040528015612b0e5781602001600182028036833780820191505090505b509050818152600183018586518101602084015b81831015612b7d576003830192508251603f8160121c168501518253600182019150603f81600c1c168501518253600182019150603f8160061c168501518253600182019150603f8116850151825360018201915050612b22565b600389510660018114612b975760028114612ba757612bb2565b613d3d60f01b6002830352612bb2565b603d60f81b60018303525b50505050508093505050505b919050565b6000606461038483604051602001612bdb9190614c05565b6040516020818303038152906040528051906020012060001c612bfe91906153f6565b612c0891906150b1565b9050919050565b6000600143612c1e91906151c9565b403330604051602001612c3393929190614902565b60405160208183030381529060405280519060200120905090565b600081600001549050919050565b600073ffffffffffffffffffffffffffffffffffffffff168273ffffffffffffffffffffffffffffffffffffffff161415612ccc576040517f08c379a0000000000000000000000000000000000000000000000000000000008152600401612cc390614ee8565b60405180910390fd5b612cd58161161b565b15612d15576040517f08c379a0000000000000000000000000000000000000000000000000000000008152600401612d0c90614d88565b60405180910390fd5b612d2160008383612eaa565b6001600360008473ffffffffffffffffffffffffffffffffffffffff1673ffffffffffffffffffffffffffffffffffffffff1681526020019081526020016000206000828254612d7191906150b1565b92505081905550816002600083815260200190815260200160002060006101000a81548173ffffffffffffffffffffffffffffffffffffffff021916908373ffffffffffffffffffffffffffffffffffffffff160217905550808273ffffffffffffffffffffffffffffffffffffffff16600073ffffffffffffffffffffffffffffffffffffffff167fddf252ad1be2c89b69c2b068fc378daa952ba7f163c4a11628f55a4df523b3ef60405160405180910390a45050565b6001816000016000828254019250508190555050565b60007f01ffc9a7000000000000000000000000000000000000000000000000000000007bffffffffffffffffffffffffffffffffffffffffffffffffffffffff1916827bffffffffffffffffffffffffffffffffffffffffffffffffffffffff1916149050919050565b612eb5838383613737565b600073ffffffffffffffffffffffffffffffffffffffff168373ffffffffffffffffffffffffffffffffffffffff161415612ef857612ef38161373c565b612f37565b8173ffffffffffffffffffffffffffffffffffffffff168373ffffffffffffffffffffffffffffffffffffffff1614612f3657612f358382613785565b5b5b600073ffffffffffffffffffffffffffffffffffffffff168273ffffffffffffffffffffffffffffffffffffffff161415612f7a57612f75816138f2565b612fb9565b8273ffffffffffffffffffffffffffffffffffffffff168273ffffffffffffffffffffffffffffffffffffffff1614612fb857612fb78282613a35565b5b5b505050565b60606130d1826040518060400160405280600781526020017f436c696d61746500000000000000000000000000000000000000000000000000815250600c805480602002602001604051908101604052809291908181526020016000905b828210156130c857838290600052602060002001805461303b90615312565b80601f016020809104026020016040519081016040528092919081815260200182805461306790615312565b80156130b45780601f10613089576101008083540402835291602001916130b4565b820191906000526020600020905b81548152906001019060200180831161309757829003601f168201915b50505050508152602001906001019061301c565b50505050613ab4565b9050919050565b60606131eb826040518060400160405280600881526020017f5265736f75726365000000000000000000000000000000000000000000000000815250600d805480602002602001604051908101604052809291908181526020016000905b828210156131e257838290600052602060002001805461315590615312565b80601f016020809104026020016040519081016040528092919081815260200182805461318190615312565b80156131ce5780601f106131a3576101008083540402835291602001916131ce565b820191906000526020600020905b8154815290600101906020018083116131b157829003601f168201915b505050505081526020019060010190613136565b50505050613ab4565b9050919050565b60006103e8612328600b60008581526020019081526020016000205460405160200161321e91906148e7565b6040516020818303038152906040528051906020012060001c61324191906153f6565b61324b91906150b1565b9050919050565b6060613365826040518060400160405280600881526020017f4172746966616374000000000000000000000000000000000000000000000000815250600e805480602002602001604051908101604052809291908181526020016000905b8282101561335c5783829060005260206000200180546132cf90615312565b80601f01602080910402602001604051908101604052809291908181526020018280546132fb90615312565b80156133485780601f1061331d57610100808354040283529160200191613348565b820191906000526020600020905b81548152906001019060200180831161332b57829003601f168201915b5050505050815260200190600101906132b0565b50505050613b56565b9050919050565b606061347f826040518060400160405280600a81526020017f41746d6f73706865726500000000000000000000000000000000000000000000815250600f805480602002602001604051908101604052809291908181526020016000905b828210156134765783829060005260206000200180546133e990615312565b80601f016020809104026020016040519081016040528092919081815260200182805461341590615312565b80156134625780601f1061343757610100808354040283529160200191613462565b820191906000526020600020905b81548152906001019060200180831161344557829003601f168201915b5050505050815260200190600101906133ca565b50505050613ab4565b9050919050565b6060613599826040518060400160405280600681526020017f4f626a65637400000000000000000000000000000000000000000000000000008152506010805480602002602001604051908101604052809291908181526020016000905b8282101561359057838290600052602060002001805461350390615312565b80601f016020809104026020016040519081016040528092919081815260200182805461352f90615312565b801561357c5780601f106135515761010080835404028352916020019161357c565b820191906000526020600020905b81548152906001019060200180831161355f57829003601f168201915b5050505050815260200190600101906134e4565b50505050613b56565b9050919050565b60006135c18473ffffffffffffffffffffffffffffffffffffffff16613e90565b1561372a578373ffffffffffffffffffffffffffffffffffffffff1663150b7a026135ea611687565b8786866040518563ffffffff1660e01b815260040161360c9493929190614c64565b602060405180830381600087803b15801561362657600080fd5b505af192505050801561365757506040513d601f19601f820116820180604052508101906136549190614237565b60015b6136da573d8060008114613687576040519150601f19603f3d011682016040523d82523d6000602084013e61368c565b606091505b506000815114156136d2576040517f08c379a00000000000000000000000000000000000000000000000000000000081526004016136c990614d48565b60405180910390fd5b805181602001fd5b63150b7a0260e01b7bffffffffffffffffffffffffffffffffffffffffffffffffffffffff1916817bffffffffffffffffffffffffffffffffffffffffffffffffffffffff19161491505061372f565b600190505b949350505050565b505050565b6008805490506009600083815260200190815260200160002081905550600881908060018154018082558091505060019003906000526020600020016000909190919091505550565b6000600161379284610b7f565b61379c91906151c9565b9050600060076000848152602001908152602001600020549050818114613881576000600660008673ffffffffffffffffffffffffffffffffffffffff1673ffffffffffffffffffffffffffffffffffffffff168152602001908152602001600020600084815260200190815260200160002054905080600660008773ffffffffffffffffffffffffffffffffffffffff1673ffffffffffffffffffffffffffffffffffffffff168152602001908152602001600020600084815260200190815260200160002081905550816007600083815260200190815260200160002081905550505b6007600084815260200190815260200160002060009055600660008573ffffffffffffffffffffffffffffffffffffffff1673ffffffffffffffffffffffffffffffffffffffff16815260200190815260200160002060008381526020019081526020016000206000905550505050565b6000600160088054905061390691906151c9565b905060006009600084815260200190815260200160002054905060006008838154811061395c577f4e487b7100000000000000000000000000000000000000000000000000000000600052603260045260246000fd5b9060005260206000200154905080600883815481106139a4577f4e487b7100000000000000000000000000000000000000000000000000000000600052603260045260246000fd5b906000526020600020018190555081600960008381526020019081526020016000208190555060096000858152602001908152602001600020600090556008805480613a19577f4e487b7100000000000000000000000000000000000000000000000000000000600052603160045260246000fd5b6001900381819060005260206000200160009055905550505050565b6000613a4083610b7f565b905081600660008573ffffffffffffffffffffffffffffffffffffffff1673ffffffffffffffffffffffffffffffffffffffff168152602001908152602001600020600083815260200190815260200160002081905550806007600084815260200190815260200160002081905550505050565b6060600083600b600087815260200190815260200160002054604051602001613ade929190614956565b6040516020818303038152906040528051906020012060001c9050600083845183613b0991906153f6565b81518110613b40577f4e487b7100000000000000000000000000000000000000000000000000000000600052603260045260246000fd5b6020026020010151905080925050509392505050565b6060600083600b6000878152602001908152602001600020548451604051602001613b839392919061497e565b6040516020818303038152906040528051906020012060001c9050600083845183613bae91906153f6565b81518110613be5577f4e487b7100000000000000000000000000000000000000000000000000000000600052603260045260246000fd5b602002602001015190506000601583613bfe91906153f6565b9050600f811115613c8057816012808054905085613c1c91906153f6565b81548110613c53577f4e487b7100000000000000000000000000000000000000000000000000000000600052603260045260246000fd5b90600052602060002001604051602001613c6e929190614ac2565b60405160208183030381529060405291505b60138110613e8357613c90613ecb565b6011808054905085613ca291906153f6565b81548110613cd9577f4e487b7100000000000000000000000000000000000000000000000000000000600052603260045260246000fd5b906000526020600020018054613cee90615312565b80601f0160208091040260200160405190810160405280929190818152602001828054613d1a90615312565b8015613d675780601f10613d3c57610100808354040283529160200191613d67565b820191906000526020600020905b815481529060010190602001808311613d4a57829003601f168201915b505050505081600060028110613da6577f4e487b7100000000000000000000000000000000000000000000000000000000600052603260045260246000fd5b60200201819052506013821415613e1e5780600060028110613df1577f4e487b7100000000000000000000000000000000000000000000000000000000600052603260045260246000fd5b602002015183604051602001613e08929190614af1565b6040516020818303038152906040529250613e81565b80600060028110613e58577f4e487b7100000000000000000000000000000000000000000000000000000000600052603260045260246000fd5b602002015183604051602001613e6f929190614b36565b60405160208183030381529060405292505b505b8193505050509392505050565b600080823b905060008111915050919050565b6040518061024001604052806012905b6060815260200190600190039081613eb35790505090565b60405180604001604052806002905b6060815260200190600190039081613eda5790505090565b6000613f05613f0084615028565b615003565b905082815260208101848484011115613f1d57600080fd5b613f288482856152d0565b509392505050565b600081359050613f3f81615caa565b92915050565b600081359050613f5481615cc1565b92915050565b600081359050613f6981615cd8565b92915050565b600081519050613f7e81615cd8565b92915050565b600081359050613f9381615cef565b92915050565b600081519050613fa881615cef565b92915050565b600082601f830112613fbf57600080fd5b8135613fcf848260208601613ef2565b91505092915050565b600081359050613fe781615d06565b92915050565b600081519050613ffc81615d06565b92915050565b60006020828403121561401457600080fd5b600061402284828501613f30565b91505092915050565b6000806040838503121561403e57600080fd5b600061404c85828601613f45565b925050602061405d85828601613fd8565b9150509250929050565b6000806040838503121561407a57600080fd5b600061408885828601613f30565b925050602061409985828601613f30565b9150509250929050565b6000806000606084860312156140b857600080fd5b60006140c686828701613f30565b93505060206140d786828701613f30565b92505060406140e886828701613fd8565b9150509250925092565b6000806000806080858703121561410857600080fd5b600061411687828801613f30565b945050602061412787828801613f30565b935050604061413887828801613fd8565b925050606085013567ffffffffffffffff81111561415557600080fd5b61416187828801613fae565b91505092959194509250565b6000806040838503121561418057600080fd5b600061418e85828601613f30565b925050602061419f85828601613f5a565b9150509250929050565b600080604083850312156141bc57600080fd5b60006141ca85828601613f30565b92505060206141db85828601613fd8565b9150509250929050565b6000602082840312156141f757600080fd5b600061420584828501613f6f565b91505092915050565b60006020828403121561422057600080fd5b600061422e84828501613f84565b91505092915050565b60006020828403121561424957600080fd5b600061425784828501613f99565b91505092915050565b60006020828403121561427257600080fd5b600061428084828501613fd8565b91505092915050565b60006020828403121561429b57600080fd5b60006142a984828501613fed565b91505092915050565b6142bb8161529a565b82525050565b6142ca816151fd565b82525050565b6142e16142dc826151fd565b6153be565b82525050565b6142f081615221565b82525050565b6142ff8161522d565b82525050565b6143166143118261522d565b6153d0565b82525050565b60006143278261506e565b6143318185615084565b93506143418185602086016152df565b61434a816154e3565b840191505092915050565b600061436082615079565b61436a8185615095565b935061437a8185602086016152df565b614383816154e3565b840191505092915050565b600061439982615079565b6143a381856150a6565b93506143b38185602086016152df565b80840191505092915050565b600081546143cc81615312565b6143d681866150a6565b945060018216600081146143f1576001811461440257614435565b60ff19831686528186019350614435565b61440b85615059565b60005b8381101561442d5781548189015260018201915060208101905061440e565b838801955050505b50505092915050565b600061444b601783615095565b915061445682615501565b602082019050919050565b600061446e602b83615095565b91506144798261552a565b604082019050919050565b6000614491603283615095565b915061449c82615579565b604082019050919050565b60006144b4602683615095565b91506144bf826155c8565b604082019050919050565b60006144d7601c83615095565b91506144e282615617565b602082019050919050565b60006144fa600c83615095565b915061450582615640565b602082019050919050565b600061451d602a83615095565b915061452882615669565b604082019050919050565b6000614540602283615095565b915061454b826156b8565b604082019050919050565b6000614563602483615095565b915061456e82615707565b604082019050919050565b6000614586601983615095565b915061459182615756565b602082019050919050565b60006145a96002836150a6565b91506145b48261577f565b600282019050919050565b60006145cc602c83615095565b91506145d7826157a8565b604082019050919050565b60006145ef600983615095565b91506145fa826157f7565b602082019050919050565b60006146126001836150a6565b915061461d82615820565b600182019050919050565b6000614635603883615095565b915061464082615849565b604082019050919050565b60006146586001836150a6565b915061466382615898565b600182019050919050565b600061467b602a83615095565b9150614686826158c1565b604082019050919050565b600061469e602983615095565b91506146a982615910565b604082019050919050565b60006146c16002836150a6565b91506146cc8261595f565b600282019050919050565b60006146e4602083615095565b91506146ef82615988565b602082019050919050565b6000614707602c83615095565b9150614712826159b1565b604082019050919050565b600061472a6012836150a6565b915061473582615a00565b601282019050919050565b600061474d602083615095565b915061475882615a29565b602082019050919050565b6000614770602983615095565b915061477b82615a52565b604082019050919050565b60006147936027836150a6565b915061479e82615aa1565b602782019050919050565b60006147b6602183615095565b91506147c182615af0565b604082019050919050565b60006147d9601d836150a6565b91506147e482615b3f565b601d82019050919050565b60006147fc6000836150a6565b915061480782615b68565b600082019050919050565b600061481f6003836150a6565b915061482a82615b6b565b600382019050919050565b6000614842603183615095565b915061484d82615b94565b604082019050919050565b60006148656011836150a6565b915061487082615be3565b601182019050919050565b6000614888602c83615095565b915061489382615c0c565b604082019050919050565b60006148ab602883615095565b91506148b682615c5b565b604082019050919050565b6148ca81615283565b82525050565b6148e16148dc82615283565b6153ec565b82525050565b60006148f38284614305565b60208201915081905092915050565b600061490e8286614305565b60208201915061491e82856142d0565b60148201915061492e82846142d0565b601482019150819050949350505050565b600061494b828461438e565b915081905092915050565b6000614962828561438e565b915061496e8284614305565b6020820191508190509392505050565b600061498a828661438e565b91506149968285614305565b6020820191506149a682846148d0565b602082019150819050949350505050565b60006149c3828c61438e565b91506149cf828b61438e565b91506149db828a61438e565b91506149e7828961438e565b91506149f3828861438e565b91506149ff828761438e565b9150614a0b828661438e565b9150614a17828561438e565b9150614a23828461438e565b91508190509a9950505050505050505050565b6000614a42828d61438e565b9150614a4e828c61438e565b9150614a5a828b61438e565b9150614a66828a61438e565b9150614a72828961438e565b9150614a7e828861438e565b9150614a8a828761438e565b9150614a96828661438e565b9150614aa2828561438e565b9150614aae828461438e565b91508190509b9a5050505050505050505050565b6000614ace828561438e565b9150614ad982614605565b9150614ae582846143bf565b91508190509392505050565b6000614afc8261464b565b9150614b08828561438e565b9150614b13826147ef565b9150614b1e8261459c565b9150614b2a828461438e565b91508190509392505050565b6000614b418261464b565b9150614b4d828561438e565b9150614b58826147ef565b9150614b638261459c565b9150614b6f828461438e565b9150614b7a82614812565b91508190509392505050565b6000614b91826147cc565b9150614b9d828461438e565b915081905092915050565b6000614bb382614858565b9150614bbf828661438e565b9150614bca8261471d565b9150614bd6828561438e565b9150614be182614786565b9150614bed828461438e565b9150614bf8826146b4565b9150819050949350505050565b6000614c1182846148d0565b60208201915081905092915050565b6000602082019050614c3560008301846142c1565b92915050565b6000604082019050614c5060008301856142b2565b614c5d60208301846148c1565b9392505050565b6000608082019050614c7960008301876142c1565b614c8660208301866142c1565b614c9360408301856148c1565b8181036060830152614ca5818461431c565b905095945050505050565b6000602082019050614cc560008301846142e7565b92915050565b6000602082019050614ce060008301846142f6565b92915050565b60006020820190508181036000830152614d008184614355565b905092915050565b60006020820190508181036000830152614d218161443e565b9050919050565b60006020820190508181036000830152614d4181614461565b9050919050565b60006020820190508181036000830152614d6181614484565b9050919050565b60006020820190508181036000830152614d81816144a7565b9050919050565b60006020820190508181036000830152614da1816144ca565b9050919050565b60006020820190508181036000830152614dc1816144ed565b9050919050565b60006020820190508181036000830152614de181614510565b9050919050565b60006020820190508181036000830152614e0181614533565b9050919050565b60006020820190508181036000830152614e2181614556565b9050919050565b60006020820190508181036000830152614e4181614579565b9050919050565b60006020820190508181036000830152614e61816145bf565b9050919050565b60006020820190508181036000830152614e81816145e2565b9050919050565b60006020820190508181036000830152614ea181614628565b9050919050565b60006020820190508181036000830152614ec18161466e565b9050919050565b60006020820190508181036000830152614ee181614691565b9050919050565b60006020820190508181036000830152614f01816146d7565b9050919050565b60006020820190508181036000830152614f21816146fa565b9050919050565b60006020820190508181036000830152614f4181614740565b9050919050565b60006020820190508181036000830152614f6181614763565b9050919050565b60006020820190508181036000830152614f81816147a9565b9050919050565b60006020820190508181036000830152614fa181614835565b9050919050565b60006020820190508181036000830152614fc18161487b565b9050919050565b60006020820190508181036000830152614fe18161489e565b9050919050565b6000602082019050614ffd60008301846148c1565b92915050565b600061500d61501e565b90506150198282615344565b919050565b6000604051905090565b600067ffffffffffffffff821115615043576150426154b4565b5b61504c826154e3565b9050602081019050919050565b60008190508160005260206000209050919050565b600081519050919050565b600081519050919050565b600082825260208201905092915050565b600082825260208201905092915050565b600081905092915050565b60006150bc82615283565b91506150c783615283565b9250827fffffffffffffffffffffffffffffffffffffffffffffffffffffffffffffffff038211156150fc576150fb615427565b5b828201905092915050565b60006151128261528d565b915061511d8361528d565b92508260ff0382111561513357615132615427565b5b828201905092915050565b600061514982615283565b915061515483615283565b92508261516457615163615456565b5b828204905092915050565b600061517a82615283565b915061518583615283565b9250817fffffffffffffffffffffffffffffffffffffffffffffffffffffffffffffffff04831182151516156151be576151bd615427565b5b828202905092915050565b60006151d482615283565b91506151df83615283565b9250828210156151f2576151f1615427565b5b828203905092915050565b600061520882615263565b9050919050565b600061521a82615263565b9050919050565b60008115159050919050565b6000819050919050565b60007fffffffff0000000000000000000000000000000000000000000000000000000082169050919050565b600073ffffffffffffffffffffffffffffffffffffffff82169050919050565b6000819050919050565b600060ff82169050919050565b60006152a5826152ac565b9050919050565b60006152b7826152be565b9050919050565b60006152c982615263565b9050919050565b82818337600083830152505050565b60005b838110156152fd5780820151818401526020810190506152e2565b8381111561530c576000848401525b50505050565b6000600282049050600182168061532a57607f821691505b6020821081141561533e5761533d615485565b5b50919050565b61534d826154e3565b810181811067ffffffffffffffff8211171561536c5761536b6154b4565b5b80604052505050565b600061538082615283565b91507fffffffffffffffffffffffffffffffffffffffffffffffffffffffffffffffff8214156153b3576153b2615427565b5b600182019050919050565b60006153c9826153da565b9050919050565b6000819050919050565b60006153e5826154f4565b9050919050565b6000819050919050565b600061540182615283565b915061540c83615283565b92508261541c5761541b615456565b5b828206905092915050565b7f4e487b7100000000000000000000000000000000000000000000000000000000600052601160045260246000fd5b7f4e487b7100000000000000000000000000000000000000000000000000000000600052601260045260246000fd5b7f4e487b7100000000000000000000000000000000000000000000000000000000600052602260045260246000fd5b7f4e487b7100000000000000000000000000000000000000000000000000000000600052604160045260246000fd5b6000601f19601f8301169050919050565b60008160601b9050919050565b7f456e65726779207472616e73666572206661696c656421000000000000000000600082015250565b7f455243373231456e756d657261626c653a206f776e657220696e646578206f7560008201527f74206f6620626f756e6473000000000000000000000000000000000000000000602082015250565b7f4552433732313a207472616e7366657220746f206e6f6e20455243373231526560008201527f63656976657220696d706c656d656e7465720000000000000000000000000000602082015250565b7f4f776e61626c653a206e6577206f776e657220697320746865207a65726f206160008201527f6464726573730000000000000000000000000000000000000000000000000000602082015250565b7f4552433732313a20746f6b656e20616c7265616479206d696e74656400000000600082015250565b7f444f4e45204d494e54494e470000000000000000000000000000000000000000600082015250565b7f5468697320776f726c64277320656e65726779206973206e6f7420796f75727360008201527f20746f20636c61696d2e00000000000000000000000000000000000000000000602082015250565b7f456e657267792073747265616d20616c726561647920696e697469616c697a6560008201527f642e000000000000000000000000000000000000000000000000000000000000602082015250565b7f4552433732313a207472616e7366657220746f20746865207a65726f2061646460008201527f7265737300000000000000000000000000000000000000000000000000000000602082015250565b7f4552433732313a20617070726f766520746f2063616c6c657200000000000000600082015250565b7f2220000000000000000000000000000000000000000000000000000000000000600082015250565b7f4552433732313a206f70657261746f7220717565727920666f72206e6f6e657860008201527f697374656e7420746f6b656e0000000000000000000000000000000000000000602082015250565b7f6e6f742065786973740000000000000000000000000000000000000000000000600082015250565b7f2000000000000000000000000000000000000000000000000000000000000000600082015250565b7f4552433732313a20617070726f76652063616c6c6572206973206e6f74206f7760008201527f6e6572206e6f7220617070726f76656420666f7220616c6c0000000000000000602082015250565b7f2200000000000000000000000000000000000000000000000000000000000000600082015250565b7f4552433732313a2062616c616e636520717565727920666f7220746865207a6560008201527f726f206164647265737300000000000000000000000000000000000000000000602082015250565b7f4552433732313a206f776e657220717565727920666f72206e6f6e657869737460008201527f656e7420746f6b656e0000000000000000000000000000000000000000000000602082015250565b7f227d000000000000000000000000000000000000000000000000000000000000600082015250565b7f4552433732313a206d696e7420746f20746865207a65726f2061646472657373600082015250565b7f4552433732313a20617070726f76656420717565727920666f72206e6f6e657860008201527f697374656e7420746f6b656e0000000000000000000000000000000000000000602082015250565b7f222c20226465736372697074696f6e223a220000000000000000000000000000600082015250565b7f4f776e61626c653a2063616c6c6572206973206e6f7420746865206f776e6572600082015250565b7f4552433732313a207472616e73666572206f6620746f6b656e2074686174206960008201527f73206e6f74206f776e0000000000000000000000000000000000000000000000602082015250565b7f222c2022696d616765223a2022646174613a696d6167652f7376672b786d6c3b60008201527f6261736536342c00000000000000000000000000000000000000000000000000602082015250565b7f4552433732313a20617070726f76616c20746f2063757272656e74206f776e6560008201527f7200000000000000000000000000000000000000000000000000000000000000602082015250565b7f646174613a6170706c69636174696f6e2f6a736f6e3b6261736536342c000000600082015250565b50565b7f202b310000000000000000000000000000000000000000000000000000000000600082015250565b7f4552433732313a207472616e736665722063616c6c6572206973206e6f74206f60008201527f776e6572206e6f7220617070726f766564000000000000000000000000000000602082015250565b7f7b226e616d65223a2022576f726c642023000000000000000000000000000000600082015250565b7f455243373231456e756d657261626c653a20676c6f62616c20696e646578206f60008201527f7574206f6620626f756e64730000000000000000000000000000000000000000602082015250565b7f456e657267792073747265616d206d75737420626520696e6974696c69617a6560008201527f642066697273742e000000000000000000000000000000000000000000000000602082015250565b615cb3816151fd565b8114615cbe57600080fd5b50565b615cca8161520f565b8114615cd557600080fd5b50565b615ce181615221565b8114615cec57600080fd5b50565b615cf881615237565b8114615d0357600080fd5b50565b615d0f81615283565b8114615d1a57600080fd5b5056fe3c2f746578743e3c7465787420783d2231302220793d2236302220636c6173733d2262617365223e3c2f746578743e3c7465787420783d2231302220793d223136302220636c6173733d2262617365223e3c2f746578743e3c7465787420783d2231302220793d223132302220636c6173733d2262617365223e3c2f746578743e3c7465787420783d2231302220793d2238302220636c6173733d2262617365223e3c2f746578743e3c7465787420783d2231302220793d223130302220636c6173733d2262617365223e3c2f746578743e3c7465787420783d2231302220793d223134302220636c6173733d2262617365223e4142434445464748494a4b4c4d4e4f505152535455565758595a6162636465666768696a6b6c6d6e6f707172737475767778797a303132333435363738392b2f3c73766720786d6c6e733d22687474703a2f2f7777772e77332e6f72672f323030302f73766722207072657365727665417370656374526174696f3d22784d696e594d696e206d656574222076696577426f783d223020302033353020343030223e3c7374796c653e2e62617365207b2066696c6c3a2077686974653b20666f6e742d66616d696c793a206d6f6e6f73706163653b20666f6e742d73697a653a20313470783b207d3c2f7374796c653e3c726563742077696474683d223130302522206865696768743d2231303025222066696c6c3d22626c61636b22202f3e3c7465787420783d2231302220793d2232302220636c6173733d2262617365223e3c2f746578743e3c7465787420783d2231302220793d2234302220636c6173733d2262617365223ea264697066735822122070b2e9aa897ad5fddc2e10a451c6c68807e2a0e74fbd679b17a92da60a5f00a364736f6c63430008040033",
  "devdoc": {
    "kind": "dev",
    "methods": {
      "approve(address,uint256)": {
        "details": "See {IERC721-approve}."
      },
      "balanceOf(address)": {
        "details": "See {IERC721-balanceOf}."
      },
      "getApproved(uint256)": {
        "details": "See {IERC721-getApproved}."
      },
      "isApprovedForAll(address,address)": {
        "details": "See {IERC721-isApprovedForAll}."
      },
      "name()": {
        "details": "See {IERC721Metadata-name}."
      },
      "owner()": {
        "details": "Returns the address of the current owner."
      },
      "ownerOf(uint256)": {
        "details": "See {IERC721-ownerOf}."
      },
      "renounceOwnership()": {
        "details": "Leaves the contract without owner. It will not be possible to call `onlyOwner` functions anymore. Can only be called by the current owner. NOTE: Renouncing ownership will leave the contract without an owner, thereby removing any functionality that is only available to the owner."
      },
      "safeTransferFrom(address,address,uint256)": {
        "details": "See {IERC721-safeTransferFrom}."
      },
      "safeTransferFrom(address,address,uint256,bytes)": {
        "details": "See {IERC721-safeTransferFrom}."
      },
      "setApprovalForAll(address,bool)": {
        "details": "See {IERC721-setApprovalForAll}."
      },
      "supportsInterface(bytes4)": {
        "details": "See {IERC165-supportsInterface}."
      },
      "symbol()": {
        "details": "See {IERC721Metadata-symbol}."
      },
      "tokenByIndex(uint256)": {
        "details": "See {IERC721Enumerable-tokenByIndex}."
      },
      "tokenOfOwnerByIndex(address,uint256)": {
        "details": "See {IERC721Enumerable-tokenOfOwnerByIndex}."
      },
      "totalSupply()": {
        "details": "See {IERC721Enumerable-totalSupply}."
      },
      "transferFrom(address,address,uint256)": {
        "details": "See {IERC721-transferFrom}."
      },
      "transferOwnership(address)": {
        "details": "Transfers ownership of the contract to a new account (`newOwner`). Can only be called by the current owner."
      }
    },
    "version": 1
  },
  "userdoc": {
    "kind": "user",
    "methods": {},
    "version": 1
  },
  "storageLayout": {
    "storage": [
      {
        "astId": 208,
        "contract": "contracts/Worlds.sol:Worlds",
        "label": "_name",
        "offset": 0,
        "slot": "0",
        "type": "t_string_storage"
      },
      {
        "astId": 210,
        "contract": "contracts/Worlds.sol:Worlds",
        "label": "_symbol",
        "offset": 0,
        "slot": "1",
        "type": "t_string_storage"
      },
      {
        "astId": 214,
        "contract": "contracts/Worlds.sol:Worlds",
        "label": "_owners",
        "offset": 0,
        "slot": "2",
        "type": "t_mapping(t_uint256,t_address)"
      },
      {
        "astId": 218,
        "contract": "contracts/Worlds.sol:Worlds",
        "label": "_balances",
        "offset": 0,
        "slot": "3",
        "type": "t_mapping(t_address,t_uint256)"
      },
      {
        "astId": 222,
        "contract": "contracts/Worlds.sol:Worlds",
        "label": "_tokenApprovals",
        "offset": 0,
        "slot": "4",
        "type": "t_mapping(t_uint256,t_address)"
      },
      {
        "astId": 228,
        "contract": "contracts/Worlds.sol:Worlds",
        "label": "_operatorApprovals",
        "offset": 0,
        "slot": "5",
        "type": "t_mapping(t_address,t_mapping(t_address,t_bool))"
      },
      {
        "astId": 1162,
        "contract": "contracts/Worlds.sol:Worlds",
        "label": "_ownedTokens",
        "offset": 0,
        "slot": "6",
        "type": "t_mapping(t_address,t_mapping(t_uint256,t_uint256))"
      },
      {
        "astId": 1166,
        "contract": "contracts/Worlds.sol:Worlds",
        "label": "_ownedTokensIndex",
        "offset": 0,
        "slot": "7",
        "type": "t_mapping(t_uint256,t_uint256)"
      },
      {
        "astId": 1169,
        "contract": "contracts/Worlds.sol:Worlds",
        "label": "_allTokens",
        "offset": 0,
        "slot": "8",
        "type": "t_array(t_uint256)dyn_storage"
      },
      {
        "astId": 1173,
        "contract": "contracts/Worlds.sol:Worlds",
        "label": "_allTokensIndex",
        "offset": 0,
        "slot": "9",
        "type": "t_mapping(t_uint256,t_uint256)"
      },
      {
        "astId": 7,
        "contract": "contracts/Worlds.sol:Worlds",
        "label": "_owner",
        "offset": 0,
        "slot": "10",
        "type": "t_address"
      },
      {
        "astId": 2296,
        "contract": "contracts/Worlds.sol:Worlds",
        "label": "properties",
        "offset": 0,
        "slot": "11",
        "type": "t_mapping(t_uint256,t_bytes32)"
      },
      {
        "astId": 2305,
        "contract": "contracts/Worlds.sol:Worlds",
        "label": "climates",
        "offset": 0,
        "slot": "12",
        "type": "t_array(t_string_storage)dyn_storage"
      },
      {
        "astId": 2317,
        "contract": "contracts/Worlds.sol:Worlds",
        "label": "resources",
        "offset": 0,
        "slot": "13",
        "type": "t_array(t_string_storage)dyn_storage"
      },
      {
        "astId": 2328,
        "contract": "contracts/Worlds.sol:Worlds",
        "label": "artifact",
        "offset": 0,
        "slot": "14",
        "type": "t_array(t_string_storage)dyn_storage"
      },
      {
        "astId": 2336,
        "contract": "contracts/Worlds.sol:Worlds",
        "label": "atmosphere",
        "offset": 0,
        "slot": "15",
        "type": "t_array(t_string_storage)dyn_storage"
      },
      {
        "astId": 2347,
        "contract": "contracts/Worlds.sol:Worlds",
        "label": "object",
        "offset": 0,
        "slot": "16",
        "type": "t_array(t_string_storage)dyn_storage"
      },
      {
        "astId": 2355,
        "contract": "contracts/Worlds.sol:Worlds",
        "label": "named",
        "offset": 0,
        "slot": "17",
        "type": "t_array(t_string_storage)dyn_storage"
      },
      {
        "astId": 2366,
        "contract": "contracts/Worlds.sol:Worlds",
        "label": "suffixes",
        "offset": 0,
        "slot": "18",
        "type": "t_array(t_string_storage)dyn_storage"
      },
      {
        "astId": 2705,
        "contract": "contracts/Worlds.sol:Worlds",
        "label": "_tokenIds",
        "offset": 0,
        "slot": "19",
        "type": "t_struct(Counter)1868_storage"
      },
      {
        "astId": 2707,
        "contract": "contracts/Worlds.sol:Worlds",
        "label": "mintDeadline",
        "offset": 0,
        "slot": "20",
        "type": "t_uint256"
      },
      {
        "astId": 2710,
        "contract": "contracts/Worlds.sol:Worlds",
        "label": "energyToken",
        "offset": 0,
        "slot": "21",
        "type": "t_contract(IERC20)182"
      },
      {
        "astId": 2712,
        "contract": "contracts/Worlds.sol:Worlds",
        "label": "tokenPrice",
        "offset": 0,
        "slot": "22",
        "type": "t_uint256"
      },
      {
        "astId": 2714,
        "contract": "contracts/Worlds.sol:Worlds",
        "label": "init",
        "offset": 0,
        "slot": "23",
        "type": "t_bool"
      },
      {
        "astId": 2733,
        "contract": "contracts/Worlds.sol:Worlds",
        "label": "lastExtraction",
        "offset": 0,
        "slot": "24",
        "type": "t_mapping(t_uint256,t_uint256)"
      }
    ],
    "types": {
      "t_address": {
        "encoding": "inplace",
        "label": "address",
        "numberOfBytes": "20"
      },
      "t_array(t_string_storage)dyn_storage": {
        "base": "t_string_storage",
        "encoding": "dynamic_array",
        "label": "string[]",
        "numberOfBytes": "32"
      },
      "t_array(t_uint256)dyn_storage": {
        "base": "t_uint256",
        "encoding": "dynamic_array",
        "label": "uint256[]",
        "numberOfBytes": "32"
      },
      "t_bool": {
        "encoding": "inplace",
        "label": "bool",
        "numberOfBytes": "1"
      },
      "t_bytes32": {
        "encoding": "inplace",
        "label": "bytes32",
        "numberOfBytes": "32"
      },
      "t_contract(IERC20)182": {
        "encoding": "inplace",
        "label": "contract IERC20",
        "numberOfBytes": "20"
      },
      "t_mapping(t_address,t_bool)": {
        "encoding": "mapping",
        "key": "t_address",
        "label": "mapping(address => bool)",
        "numberOfBytes": "32",
        "value": "t_bool"
      },
      "t_mapping(t_address,t_mapping(t_address,t_bool))": {
        "encoding": "mapping",
        "key": "t_address",
        "label": "mapping(address => mapping(address => bool))",
        "numberOfBytes": "32",
        "value": "t_mapping(t_address,t_bool)"
      },
      "t_mapping(t_address,t_mapping(t_uint256,t_uint256))": {
        "encoding": "mapping",
        "key": "t_address",
        "label": "mapping(address => mapping(uint256 => uint256))",
        "numberOfBytes": "32",
        "value": "t_mapping(t_uint256,t_uint256)"
      },
      "t_mapping(t_address,t_uint256)": {
        "encoding": "mapping",
        "key": "t_address",
        "label": "mapping(address => uint256)",
        "numberOfBytes": "32",
        "value": "t_uint256"
      },
      "t_mapping(t_uint256,t_address)": {
        "encoding": "mapping",
        "key": "t_uint256",
        "label": "mapping(uint256 => address)",
        "numberOfBytes": "32",
        "value": "t_address"
      },
      "t_mapping(t_uint256,t_bytes32)": {
        "encoding": "mapping",
        "key": "t_uint256",
        "label": "mapping(uint256 => bytes32)",
        "numberOfBytes": "32",
        "value": "t_bytes32"
      },
      "t_mapping(t_uint256,t_uint256)": {
        "encoding": "mapping",
        "key": "t_uint256",
        "label": "mapping(uint256 => uint256)",
        "numberOfBytes": "32",
        "value": "t_uint256"
      },
      "t_string_storage": {
        "encoding": "bytes",
        "label": "string",
        "numberOfBytes": "32"
      },
      "t_struct(Counter)1868_storage": {
        "encoding": "inplace",
        "label": "struct Counters.Counter",
        "members": [
          {
            "astId": 1867,
            "contract": "contracts/Worlds.sol:Worlds",
            "label": "_value",
            "offset": 0,
            "slot": "0",
            "type": "t_uint256"
          }
        ],
        "numberOfBytes": "32"
      },
      "t_uint256": {
        "encoding": "inplace",
        "label": "uint256",
        "numberOfBytes": "32"
      }
    }
  }
}